:020000040800F2
:100000007805002001010008FF1C0008A31A000861
:10001000FD1C00086D0100085123000800000000CD
:10002000000000000000000000000000031D0008A8
:10003000B301000800000000011D0008051D0008B4
:100040001B0100081B0100081B0100081B01000820
:100050001B0100081B0100081B0100081B01000810
:100060001B0100081B0100081B0100081B01000800
:100070001B0100081B0100081B0100081B010008F0
:100080001B0100081B0100081B01000839230008A0
:1000900045230008710100087D0100081B010008CC
:1000A0001B0100081B0100081B0100081B010008C0
:1000B0001B010008691D0008751D00081B010008D0
:1000C0001B0100081B0100081B0100081B010008A0
:1000D0001B0100081B010008192300081B01000870
:1000E0001B0100081B0100081B010008DFF80CD0F1
:1000F00000F02AF800480047912300087805002006
:100100000648804706480047FEE7FEE7FEE7FEE7B1
:10011000FEE7FEE7FEE7FEE7FEE7FEE7671D0008F5
:10012000ED000008D2B201E000F8012B491EFBD21D
:1001300070470022F6E710B513460A4604461946F2
:10014000FFF7F0FF204610BD064C074D06E0E068C3
:1001500040F0010394E8070098471034AC42F6D30E
:10016000FFF7C8FFE823000808240008FEE70000A6
:10017000014800F09CB800001C000020014800F07D
:1001800096B800001C00002030B590F840500124C3
:10019000AC40C56B6C60046863604368102B0368F7
:1001A00003D099600068C26030BD9A600068C16089
:1001B00030BD704772B6FEE7704770B590F82040CA
:1001C000012C05D0022C03D0416A41F4802128E0A3
:1001D000046809B32469A40720D04FF4D8740568D3
:1001E00004EB01142D5915F00405956005682D598F
:1001F0001AD0ED08556005682C5904F00204D4604B
:100200004FF4DA74056804EB01142E5906F00F065A
:10021000082E0CD308250DE0E468DCE7416A41F4C0
:1002200000114162012070BD6D0D1560E3E72D598D
:1002300005F00F05156105682D59C5F30725956172
:1002400005682C59240C54614FF4DC72046802EBED
:100250000112A4581C700468A458240A5C70046835
:10026000A458240C9C700468A258120EDA704FF443
:10027000DE72046802EB0112A4581C710468A458D1
:10028000240A5C710468A458240C9C710468A25868
:10029000120EDA71006829B1016941F02001016193
:1002A000002070BDC16841F02001C160F8E72DE970
:1002B000F05F0546006800244669D0F8049087681E
:1002C000D0F80CB0D0F810A0D0F81880F10748D0C2
:1002D000F90714D001218160B80703D5284600F042
:1002E00006FA0CE0780702D54FF4006407E03807FF
:1002F00002D54FF4805402E0284600F0F7F9F805E3
:1003000016D529684FF480708860B80503D5284653
:1003100000F0EFF90CE0780502D544F4005407E052
:10032000380502D544F4804402E0284600F0E0F9A4
:10033000F80316D529684FF480308860B80303D5D8
:10034000284600F0D8F90CE0780302D544F40044C4
:1003500007E0380302D544F4803402E0284600F078
:10036000C9F9300707D55FEACB6004D529681020AA
:1003700044F40074C86070074FF0080707D55FEABF
:100380000B7004D52868C760284600F071F9B007E3
:1003900006D52868C068800702D0284600F06AF9B0
:1003A000700607D55FEACA6004D52968102044F4B6
:1003B00080640861B00607D55FEA0A7004D5286832
:1003C0000761284600F062F9F00606D52868006942
:1003D000800702D0284600F05AF9B00308D55FEA3A
:1003E000C96005D5296810204860284600F050F9FA
:1003F000F00307D55FEA097004D5286847602846EE
:1004000000F07AF9300446D55FEA497040D5F0052E
:1004100004D55FEAC87001D044F00104B00504D5EA
:100420005FEA887001D544F00204700504D55FEAE4
:10043000487001D544F00404300529D518F0700F38
:1004400026D008F07000402815D006DC102809D00E
:1004500020280AD0302816D10AE050280ED0602873
:1004600011D10EE044F008040DE044F010040AE05D
:1004700044F0200407E044F0400404E044F0800429
:1004800001E044F480742868816921F07001816181
:10049000296804204860002C05D0686A20436862FF
:1004A0002846FFF789FEBDE8F09F70B5040003D031
:1004B00094F8200010B104E0012070BD204600F047
:1004C00081F82068016841F00101016000F0ACFA98
:1004D0000546052604E000F0A7FA401B0A2811D8BB
:1004E00020684068C007F6D02068016821F002014A
:1004F000016000F099FA05460BE000F095FA401B08
:100500000A2806D9606A40F40030606284F82060EE
:10051000D2E7206840688007EFD4207E0128206859
:1005200001683DD021F080010160607E01282068D3
:10053000016838D021F040010160A07E01282068C8
:10054000016833D021F020010160E07E012820689D
:1005500001682ED041F010010160207F0128206841
:10056000016829D021F008010160607F012820681E
:10057000016824D021F004010160D4E9020108439C
:10058000D4E90412114308436168491E08432168F5
:10059000C86100206062012084F82000002070BD46
:1005A00041F08001C0E741F04001C5E741F0200182
:1005B000CAE721F01001CFE741F00801D4E741F08C
:1005C0000401D9E710B586B0002100910191029194
:1005D000039100682349884242D12348C16941F010
:1005E0000071C161C16901F000710491816941F03C
:1005F0000401816180691D4C00F0040004904FF4F7
:10060000006000906946204600F01EF9A01400909A
:1006100002200190032003906946204600F014F95F
:1006200000221146132000F06BFA132000F05AFA52
:1006300000221146142000F063FA142000F052FA50
:1006400000221146152000F05BFA152000F04AFA4E
:1006500000221146162000F053FA162000F042FA4C
:1006600006B010BD006400400010024000080140C8
:100670007047000000B587B0034B6A460021FFF7C2
:100680009CFD07B000BD00001100002070477047BE
:100690007047000070B5044690F82000012804D08F
:1006A000606A40F40020606218E0022084F82000B4
:1006B0002068016821F00101016000F0B5F90546EC
:1006C0000EE000BF00F0B0F9401B0A2808D9606AAC
:1006D00040F400306062052084F82000012070BDE5
:1006E00020684068C007EDD1606270BD70477047F8
:1006F0007047704770477047704710B590F82110E9
:100700000022022905D00421816380F820200120E5
:1007100010BD01680B6823F00E030B6001680B68C5
:1007200023F001030B6090F84030C46B012101FA03
:1007300003F3636080F8211080F82020104610BD7C
:1007400010B590F821100024022903D00421816300
:1007500001243DE001680A6822F00E020A60016887
:100760000A6822F001020A601A4A0168914201D126
:10077000012121E0174A1432914201D110211BE0DE
:10078000144A2832914201D1891515E0114A3C32B0
:10079000914201D189140FE00E4A5032914202D1A8
:1007A0004FF4803108E00B4A6432914202D14FF499
:1007B000801101E04FF08071064A083A5160012132
:1007C00080F82110002180F82010416B01B188478A
:1007D000204610BD0800024070B5044690F8200085
:1007E000002501280CD0012084F8200094F8216015
:1007F0000020012E06D084F820000225284670BD76
:10080000022070BD022684F82160A063206806687B
:1008100026F0010606602046FFF7B6FCE06A0028D5
:100820002068016802D041F00E0106E021F00401C9
:1008300001602068016841F00A01016020680168D8
:1008400041F001010160D9E72DE9F84FDFF8B891D7
:100850000024A9F1040B23460F2709F1040AABF188
:10086000040EC9E00125A5402A40AA427DD1674E69
:10087000D1F804C0ACEB0608B44532D014DCBCF1AE
:10088000030F3AD009DCBCF1000F2AD0BCF1010FF4
:100890001CD0BCF1020F31D11DE0BCF1110F17D0FB
:1008A000BCF1120F2AD119E0B8F5881F19D006DC67
:1008B000B8F5803F15D0B8F5801F1FD111E0B8F50D
:1008C000001F0ED0B8F5041F18D10AE0CB6815E060
:1008D000CB681B1D12E0CB6808330FE0CB680C33EC
:1008E0000CE08B682BB1012B4FF0080303D045615E
:1008F00004E0042302E0056100E00023FF2A01D8A0
:10090000064601E000F104064FEA840501D9A5F18D
:100910002005D6F8008007FA05FC28EA0C0803FA3F
:1009200005F548EA0508C6F800804D68ED0062D577
:10093000374DAE6946F00106AE61AD6924F003069D
:1009400005F001050095334D06EB050CDCF8085069
:10095000A607360F07FA06F825EA0805DFF8B8807B
:10096000404503D14FF0000817E044E0DFF8AC80C9
:10097000404502D14FF001080FE0DFF8A480404568
:1009800002D14FF0020808E0DFF89880404502D11C
:100990004FF0030801E04FF0040808FA06F848EAAF
:1009A0000508CCF808804D68D9F80060ED024D4686
:1009B00001D5164300E096432E604D68DAF80060DA
:1009C000AD02554601D5164300E096432E604D68B2
:1009D000DBF80060AD035D4601D5164300E09643A9
:1009E0002E604D68DEF80060ED03754601D51643B4
:1009F00000E096432E60641C0D682A46E5407FF4B3
:100A000031AFBDE8F88F000008040140000011106C
:100A1000001002400000014000080140000C0140AD
:100A20000010014000140140014880687047000038
:100A300000000020024881680278114481607047FC
:100A400000000020074810B5016841F01001016066
:100A5000032000F075F80F2000F006F800F024F8ED
:100A6000002010BD0020024070B50D4D04464FF42B
:100A70007A712878B1FBF0F00A490968B1FBF0F00F
:100A800000F0DCFA48B9102C07D200222146501E93
:100A900000F036F800206C6070BD012070BD0000D1
:100AA000000000200C0000200C4808B5816941F0CE
:100AB00001018161816901F001010091C16941F089
:100AC0008051C161C06900F08050009004484168C5
:100AD00021F0E06141F00071416008BD001002406A
:100AE00000000140002809DB00F01F0201219140B5
:100AF0004009800000F1E020C0F8001170470000BC
:100B0000F0B40E4B1B680C46C3F30223C3F1070578
:100B1000042D00D90425191D072901D2002300E066
:100B2000DB1E012606FA05F1491E214099409E4030
:100B3000761E16403143F0BC01F00BBC0CED00E01A
:100B4000064900F0070208684FF6FF03184040EA24
:100B50000220034A10430860704700000CED00E0DB
:100B60000000FA052DE9F0470F46050061D0434E1D
:100B7000306800F00700B84209D2306820F0070062
:100B800038433060306800F00700B84251D128681F
:100B90003B4C810712D5400703D5606840F4E06004
:100BA00060602878000703D5606840F4605060609A
:100BB0006068A96820F0F000084360602878C007EA
:100BC00028D06868012810D02168022810D0890731
:100BD00000292EDA616821F0030101436160FFF70B
:100BE00023FF804641F288390DE021688903EFE751
:100BF0008901EDE7FFF718FFA0EB0801494502D98D
:100C00000320BDE8F0876068696800F00C00B0EB75
:100C1000810FEFD1306800F00700B8420BD930687F
:100C200020F0070038433060306800F00700B84219
:100C300001D00120E5E72878400705D56068E9681C
:100C400020F4E060084360602878000706D56068FB
:100C5000296920F4605040EAC100606000F038F873
:100C60006168084AC1F30311515CC8400649086035
:100C700006480068FFF7F8FE0020C2E700200240A7
:100C800000100240CE2300080C00002004000020C9
:100C90000448054900684968044AC1F30221515CCF
:100CA000C84070470C00002000100240DE230008FE
:100CB0000448054900684968044AC1F3C221515CEF
:100CC000C84070470C00002000100240DE230008DE
:100CD0000E4A51680E4801F00C03042B11D0082B6A
:100CE0000FD10C48C1F38343C903C05C0AD55168D6
:100CF000084AC1F34041921E515C054A5043B0FB83
:100D0000F1F070470449484370470000001002406A
:100D100000127A00BE23000800093D002DE9F84FBB
:100D2000040070D02078C04DC00749D06868C0F377
:100D30008100012807D06868C0F38100022809D12A
:100D40006868C00306D52868800339D56068002824
:100D5000E7D035E06068B0F5803F0BD010B1B0F55A
:100D6000A02F11D0286820F480302860286820F453
:100D7000802002E0286840F480302860606890B1EC
:100D8000FFF752FE06460AE0286840F480202860FB
:100D9000F0E700BFFFF748FE801B642873D828687F
:100DA0008003F7D50CE0FFF73FFE064605E000BFE5
:100DB000FFF73AFE801B6428F0D828688003F7D438
:100DC00020789A4E80074FF001094FF0000839D57E
:100DD000686810F00C0F07D06868C0F38100022823
:100DE00009D16868C00306D42868800714D5206933
:100DF000012808D110E02069B0B1C6F80090FFF7D3
:100E000013FE074605E00AE1FFF70EFEC01B0228AD
:100E1000C4D828688007F7D52868616920F0F800F1
:100E200040EAC10028600DE0C6F80080FFF7FCFD35
:100E3000074604E0FFF7F8FDC01B022823D8286806
:100E40008007F7D4207800072CD57948A169D9B15B
:100E5000C0F80090FFF7E8FD074604E0FFF7E4FD67
:100E6000C01B02280FD8686A8007F7D571484FF475
:100E7000FA510068B0FBF1F0009000BF0098411EED
:100E80000091FAD20EE080E0C0F80080FFF7CCFDC0
:100E9000074604E0FFF7C8FDC01B022875D8686A42
:100EA0008007F7D42078400760D5E8690027C000A4
:100EB00008D4E86940F08050E861E869012700F053
:100EC000805000905C480168C90513D401688346CE
:100ED00041F480710160FFF7A7FD824606E000BF84
:100EE000FFF7A2FDA0EB0A0064284ED8DBF8000053
:100EF000C005F5D5E06801280AD008B1052813D04F
:100F0000286A20F001002862286A20F0040002E02C
:100F1000286A40F001002862E06841F2883B98B1FD
:100F2000FFF782FD82460BE0286A40F00400286249
:100F3000EEE700BFFFF778FDA0EB0A0159455AD84C
:100F4000286A8007F6D50CE0FFF76EFD824605E0C3
:100F5000FFF76AFDA0EB0A0159454CD8286A8007C3
:100F6000F6D41FB1E86920F08050E861E06988B3E9
:100F70006968C1F38101022944D00228C6F8608063
:100F800004D0FFF751FD044638E034E0FFF74CFD94
:100F9000074604E0FFF748FDC01B02282BD828684D
:100FA0008001F7D4206AB0F5803F05D16868A16858
:100FB00020F4003008436860D4E9080108436968F8
:100FC00021F4741108436860C6F86090FFF72CFDA7
:100FD000044606E025E000BFFFF726FD001B0228BF
:100FE00009D828688001F7D51BE000BFFFF71CFD7A
:100FF000001B022802D90320BDE8F88F2868800171
:10100000F4D40EE00128F7D06868226A00F4803139
:10101000914204D1616A00F47010884201D001202D
:10102000EAE70020E8E7000000100240000042422A
:10103000800442420C0000200070004010B5401EA9
:10104000B0F1807F01D3012010BD4FF0E02460613A
:101050000F21601701F07DF90020A06107202061B9
:10106000002010BD7047704770B590F83C20012AF1
:1010700026D0012480F83C40022280F83D200368FD
:101080005A689D6822F070060A6832435A600D4B18
:1010900002689A4208D0B2F1804F05D00A4B9A42BA
:1010A00002D00A4B9A4204D1496825F080031943C3
:1010B000916080F83D40002180F83C10084670BDEA
:1010C000022070BD002C01400004004000080040D8
:1010D00010B5040003D094F83D0010B107E00120E2
:1010E00010BD002084F83C00204600F01FF80220CC
:1010F00084F83D00211D206800F042FE012084F8A4
:10110000460084F83E0084F83F0084F8400084F8EC
:10111000410084F8420084F8430084F8440084F8D5
:10112000450084F83D00002010BD000008B50068AF
:10113000B0F1804F08D10548C16941F00101C1619A
:10114000C06900F00100009008BD000000100240DE
:1011500070B5044690F83C000025012817D0012600
:1011600084F83C60022084F83D002068826822F008
:10117000770222F47F4282600868502838D00DDC64
:1011800020284FD005DC90B3102811D14AE002206E
:1011900070BD302846D040280AD13BE060282FD0CF
:1011A00070280DD0B0F5805F03D0B0F5005F12D08D
:1011B000012584F83D60002084F83C00284670BD7D
:1011C000CB68D1E90121206800F016FE2068816813
:1011D00041F0770109E0CB68D1E90121206800F0F6
:1011E0000BFE2068816841F480418160E1E719E0ED
:1011F000CA684968206800F0B3FE5021206806E004
:10120000CA684968206800F0BCFE6021206800F0D0
:10121000FDFDCEE7CA684968206800F0A1FE4021C4
:101220002068F4E7226801461046F0E72DE9F04116
:101230000D46040003D094F83D0018B108E00120E9
:10124000BDE8F081002084F83C00204600F040F822
:10125000022084F83D002068816844F2070291432F
:101260008160211D206800F08BFD226890689169E3
:10127000166A2B68AF69034340F20330814341EAA9
:101280000721A868EF6908434FF6FC418843E968E5
:1012900040EA0720014328692F6A000140EA07302D
:1012A000084369686D6926F0220646EA0515294358
:1012B00093602268906154F8460B0162012004F8A3
:1012C0001F09E0752076E0762077A0750020B7E74B
:1012D00000B585B000210091019102910391224B4C
:1012E00002682248C0219A421BD1C26942F0020220
:1012F000C261C26902F002020492826942F00402F1
:1013000082618069009100F00400049069461848E9
:10131000FFF79AFA002211461D20FFF7F1FB1D206E
:101320001DE0144B9A421CD1C26942F00402C26112
:10133000C26902F004020492826942F008028261EA
:101340008069009100F00800049069460A48FFF7A0
:101350007BFA002211461E20FFF7D2FB1E20FFF76A
:10136000C1FB05B000BD00000004004000100240B9
:101370000008014000080040000C014070472DE9C2
:10138000F04104460068C66805694FF00007A907E8
:1013900013D5B10711D5F91E01610120207720680E
:1013A00080698007204602D0FFF7E8FF04E000F0E4
:1013B000C1F8204600F053F92777680716D5700763
:1013C00014D521686FF0040008610220207720689E
:1013D000806910F4407F204602D0FFF7CFFF04E081
:1013E00000F0A8F8204600F03AF92777280715D52D
:1013F000300713D521686FF00800086104202077BA
:101400002068C0698007204602D0FFF7B7FF04E0DC
:1014100000F090F8204600F022F92777E80616D56C
:10142000F00614D521686FF01000086108202077BD
:101430002068C06910F4407F204602D0FFF79EFF6D
:1014400004E000F077F8204600F009F92777E80774
:1014500008D0F00706D021686FF00100086120462F
:1014600000F0FEF8280608D5300606D521686FF092
:10147000800008612046FFF7F5FD680608D5700674
:1014800006D521686FF040000861204600F0E9F8B9
:10149000A8060AD5B00608D521686FF020000861BB
:1014A0002046BDE8F041FFF7DEBDBDE8F081000059
:1014B00010B586B00021009101910291039100685E
:1014C000B0F1804F2BD11748816941F0040181614F
:1014D000816901F004010491816941F00801816191
:1014E0008069022400F0080004900320CDE9000484
:1014F00069460D480394FFF7A7F94FF44060CDE922
:101500000004694609480394FFF79EF908484168BA
:1015100021F4407141F0E06141F40071416006B096
:1015200010BD00000010024000080140000C014006
:1015300000000140704770B5044690F83C0000265A
:101540000D4601280FD0012084F83C006AB1042A1E
:101550001DD0082A2FD00C2A3FD00126002084F865
:101560003C00304670BD022070BD206800F056FC83
:101570002068816941F0080181612068816921F05A
:1015800004018161206881692A69114311E02068A2
:1015900000F06CFC2068816941F400618161206881
:1015A000816921F480618161206881692A6941EA49
:1015B00002218161D2E7206800F084FC2068C169C3
:1015C00041F00801C1612068C16921F00401C161D5
:1015D0002068C1692A69114311E0206800F09EFC6F
:1015E0002068C16941F40061C1612068C16921F4CA
:1015F0008061C1612068C1692A6941EA0221C16133
:10160000ACE710B5040003D094F83D0010B107E03A
:10161000012010BD002084F83C00204600F01EF898
:10162000022084F83D00211D206800F0A9FB012064
:1016300084F8460084F83E0084F83F0084F84000B7
:1016400084F8410084F8420084F8430084F84400A0
:1016500084F8450084F83D00002010BD70477047B5
:101660007047704738B5044690F84200202801D0F2
:10167000022038BD51B14AB10120206300206063CF
:10168000204600F001FE216B012901D0012038BD68
:1016900021680A684968009121680C3151E8002FDF
:1016A00042F0100241E80023002BF5D138BD0000C4
:1016B00010B5074A0168914209D100F00DF81021D8
:1016C0000448FEF736FDBDE8104000F02BBE10BD0B
:1016D000003801406401002010B5044600684069EC
:1016E00094F84110C0F3C010212911D180B12068B5
:1016F000143050E8001F21F0800140E80012002A59
:10170000F5D1A06B08B1FEF7F8FF204600F0F1FC20
:101710002068406994F84210C0F38010222911D14A
:1017200080B12068143050E8001F21F0400140E8EB
:101730000012002AF5D1E06B08B1FEF7DEFF20466B
:1017400000F0B0FC002010BD70470000F8B5016843
:1017500004460868CA684B6910F00F0F4FF0000587
:1017600059D003F0010602F49077374365D0C107E2
:1017700005D0D10503D5616C41F0010161644107D9
:1017800005D5D90703D0616C41F00201616481077E
:1017900005D5D90703D0616C41F0040161640107EC
:1017A00007D502F02001314303D0616C41F00801FC
:1017B0006164616C00293AD0800604D5900602D598
:1017C000204600F0A4FC20684069616CC0F38010E2
:1017D000090700D460B3204600F064FC206840692B
:1017E000400621D52068143050E8001F21F0400148
:1017F00040E80012002AF5D1E06BA8B16D494163C1
:10180000E06BFEF79DFF002811D0E06B416B01B04B
:10181000BDE8F040084783060FD593060DD5204656
:10182000BDE8F84000F073BC2046FFF78DFFF8BD1F
:101830002046FFF789FF6564F8BD266B2023012E43
:101840007CD1C6067AD5D60678D508684868009057
:1018500048694FF00206400640D5E16B08684068D1
:101860000004000CE8D0A28D8242E5D9E0858869A9
:1018700020282DD020680C3050E8001F21F4807102
:1018800040E80012002AF5D12068143050E8001F0B
:1018900021F0010140E80012002AF5D1206814303F
:1018A00050E8001F21F0400140E80012002AF5D165
:1018B00084F84230256320680C3050E8001F21F086
:1018C000100140E80012002AF5D1E06BFEF715FF89
:1018D0006663A08DE18D401A81B22AE0A08DE18D72
:1018E000401A81B2E08D0028A6D00029A4D0226839
:1018F0000C3252E8000F20F4907042E80007002FED
:10190000F5D12068143050E8002F22F0010240E8A1
:101910000027002FF5D184F84230256320680C3071
:1019200050E8002F22F0100240E80023002BF5D1F0
:1019300066632046FFF7BCFEF8BDFFE705062BD522
:10194000150629D594F841002128F5D1A068B0F5F5
:10195000805F01D12069B0B1206A411C21622168F9
:1019600000784860E08C401E0004000CE084E3D165
:101970002068C16821F08001C1602068C16841F021
:101980004001C160D8E7206A0088C0F308004860C1
:10199000206A801C2062E5E74006CDD55006CBD5F5
:1019A000CA68204622F04002CA6084F8413000F044
:1019B00077F8C1E7A71F000870B5040004D094F8B9
:1019C0004100002510B106E0012070BD84F84050B0
:1019D000204600F023F8242084F841002068C168E4
:1019E00021F40051C160204600F0F2FB206801693B
:1019F00021F4904101612068416921F02A0141618F
:101A00002068C16841F40051C1606564202084F8F9
:101A1000410084F842006563002070BD30B585B098
:101A200000240094019402940394006818498842A9
:101A30002BD11848C16941F40031C161C16901F479
:101A400000310491816941F0040181618069124D86
:101A500000F0040004900420009002200190032074
:101A6000039069462846FEF7EFFE0820CDE9000402
:101A7000694628460294FEF7E7FE0022114626201A
:101A8000FFF73EF82620FFF72DF805B030BD000027
:101A900000440040001002400008014070477047B9
:101AA0007047FEE7104810B50E49016009214160FA
:101AB00000214FF400328160C0E903124FF440125C
:101AC00042610176417681760122C27601774177C3
:101AD000FEF7EBFC002803D0BDE81040FEF76ABB20
:101AE00010BD0000006400401C0000200D4808B537
:101AF000816941F020018161816901F0200100913B
:101B0000816941F004018161816901F00401009162
:101B1000816941F008018161806900F0080000904E
:101B200008BD00000010024010B58EB000240794DC
:101B3000089409940A940B941C2168460C94FEF7AF
:101B4000F8FA29484FF08041C0E900144FF6FF71C0
:101B5000C0E9024104618461FFF7BAFA08B1FEF7F7
:101B600029FB4FF48050079007A91F48FFF7F0FAB0
:101B700008B1FEF71FFB1C48FFF743FD08B1FEF755
:101B800019FB0B940BA918480C94FFF76DFA08B1D8
:101B9000FEF710FB6020CDE90004029400226946A4
:101BA00011480494FFF7C7FC08B1FEF703FB0422B9
:101BB00069460D48FFF7BFFC08B1FEF7FBFA0822A3
:101BC00069460948FFF7B7FC08B1FEF7F3FA0C22A3
:101BD00069460548FFF7AFFC08B1FEF7EBFA02488B
:101BE000FFF766FC0EB010BD4400002010B58CB0AD
:101BF00024216846FEF79DFA0024164809941449EA
:101C00000A94C0E900144FF6FF71C0E90241046173
:101C100084610320CDE900040120CDE9020404948D
:101C2000CDE90540079469460A480894FFF7FEFA93
:101C300008B1FEF7BFFA099409A906480A94FFF70C
:101C400013FA002801D0FEF7B5FA0CB010BD000061
:101C5000000400408C00002010B58CB024216846A0
:101C6000FEF767FA00241648099414490A94C0E95B
:101C700000144FF6FF71C0E9024104618461032042
:101C8000CDE900040120CDE902040494CDE905402A
:101C9000079469460A480894FFF7C8FA08B1FEF7A6
:101CA00089FA099409A906480A94FFF7DDF9002882
:101CB00001D0FEF77FFA0CB010BD00000008004014
:101CC000D40000200C4810B50A4901604FF4E131FE
:101CD0004160002181600C22C160C0E90412816171
:101CE000C161FFF769FE002803D0BDE81040FEF790
:101CF00061BA10BD004400401C010020FEE7FEE771
:101D000070477047FEF796BE30B58FB02821684601
:101D1000FEF70FFA14210AA8FEF70BFA01210804B6
:101D2000CDE900100024029402250491CDE907506A
:101D30004FF4E01009906846FEF7F0FF08B172B664
:101D4000FEE70F20CDE90A054FF48060CDE90C4095
:101D500002210AA80E94FEF705FF002801D072B6F2
:101D6000FEE70FB030BD70470148FFF708BB000029
:101D70008C0000200148FFF702BB0000D4000020C7
:101D8000F0B50268194B1A4C1A4D4FF08047984233
:101D900005D0B84203D0A04201D0A84203D122F01E
:101DA00070064A683243984205D0B84203D0A04238
:101DB00001D0A84203D122F44074CA6822434C697E
:101DC00022F08002224302608A68C2620A6882624C
:101DD000984201D109690163012141610169C90783
:101DE00003D0016921F001010161F0BD002C014027
:101DF000000400400008004010B5846842EA032255
:101E000024F47F440A432243826010BD826822F09A
:101E100070020A4342F007018160704730B5036ADF
:101E2000026A22F0010202624268846924F07305AA
:101E30000C682C4323F002058B682B430A4DA84203
:101E40000BD123F00805CB6822F440722B434D6977
:101E500023F0040315438A692A4342608461496878
:101E60004163036230BD0000002C014030B5026ABE
:101E7000036A23F010030362436884690D6824F445
:101E8000E64444EA05248D6822F0200242EA051265
:101E90000B4DA8420ED1CD6822F0800242EA051215
:101EA0004D6923F4406343EA85038D6922F04002C3
:101EB00043EA85034360846149688163026230BDFF
:101EC000002C014030B5036A026A22F4807202627B
:101ED0004268C46923F4007324F073050C682C4332
:101EE0008D6843EA05230C4DA8420ED1CD6823F43A
:101EF000006343EA05234D6922F4405242EA051289
:101F00008D6923F4806342EA05124260C461496826
:101F1000C163036230BD0000002C014030B5046A8B
:101F2000026A22F4805202624268C3690D6823F497
:101F3000E64343EA05238D6824F4005444EA05345B
:101F4000064DA84204D14D6922F4804242EA85122E
:101F50004260C36149680164046230BD002C0140E5
:101F600010B5036A046A24F001040462846924F051
:101F7000F00444EA021423F00A020A438461026274
:101F800010BD10B5036A046A24F010040462846969
:101F900023F0A00324F4704444EA023243EA01111E
:101FA0008261016210BD10B5406A0021C185C18403
:101FB000FFF7CAFB10BD70B5446A2068406994F809
:101FC0004110C0F3C0100025212904D118B1E584C7
:101FD000204600F08EF82068406994F84210C0F363
:101FE0008010222904D118B1E585204600F05AF866
:101FF000606C40F0100060642046FFF7A5FB70BDE8
:1020000010B50146406A096809684FF00002890668
:102010002ED4C28501680C3151E8003F23F480734F
:1020200041E80034002CF5D10168143151E8003F3B
:1020300023F0010341E80034002CF5D1016814318C
:1020400051E8003F23F0400341E80034002CF5D173
:10205000202180F84210016B012909D101680C315F
:1020600051E8003F23F0100341E80034002CF5D183
:102070004263016B012902D0FFF710FD10BD818D75
:10208000FFF716FB10BD10B5406A01214163016BDB
:10209000012902D0FFF703FD10BD818D4908FFF72C
:1020A00007FB10BD01680C3151E8002F22F490723B
:1020B00041E80023002BF5D10168143151E8002FCD
:1020C00022F0010241E80023002BF5D1016B012928
:1020D00009D101680C3151E8002F22F0100241E8CB
:1020E0000023002BF5D1202180F84210002101634C
:1020F000704701680C3151E8002F22F0C00241E81E
:102100000023002BF5D1202180F84110704708B53D
:1021100090F84210222901D0022008BD82684FF4B5
:1021200080539A4201D1016921B1816A9A421BD040
:102130004AB10AE00268816A5268C2F308020A8062
:10214000816A891C08E0026972B10268526802F073
:102150007F020A70816A491C8162C18D491E09048F
:10216000090CC18503D01BE002685268F1E70168E1
:10217000CA6822F02002CA600168CA6822F480722C
:10218000CA6001684A6922F001024A61202180F890
:10219000421000214163026B012A03D0FFF77EFC4D
:1021A000002008BD016301680C3151E8002F22F0C6
:1021B000100241E80023002BF5D101680A68D2061D
:1021C00002D50A6849680091818DFFF771FAE7E747
:1021D00070B5044600680169E26821F4405111437A
:1021E00001612169A0680843616908432168CA68E0
:1021F00041F20C639A430243CA6020684169A269B4
:1022000021F44071114341611E492068884202D186
:10221000FEF74EFD01E0FEF73BFD00EBC00101EBD8
:102220000012606864218000B2FBF0F3B3FBF1F3AD
:102230006FF018067343B2FBF0F5B2FBF0F605EB56
:102240008305322303EB0515B5FBF1F5B6FBF1F67B
:1022500005F0F00505EB0615B2FBF0F6B2FBF0F069
:10226000B0FBF1F06FF01802504306EB800003EB77
:102270000010B0FBF1F0216800F00F0028448860E6
:1022800070BD00000038014038B581620446828587
:10229000002013466064222284F84220E56B1B4A2A
:1022A000AA62E56B1A4AEA62E56B1A4A2A63E26B94
:1022B00050630A462168E06B091DFEF78DFA20681D
:1022C000016840680090206948B120680C3050E8EF
:1022D000001F41F4807140E80012002AF5D1206807
:1022E000143050E8001F41F0010140E80012002ABC
:1022F000F5D12068143050E8001F41F0400140E85B
:102300000012002AF5D1002038BD0000012000088D
:1023100087200008B71F00080148FFF717BA000020
:102320001C010020102202490248FFF79BB900005F
:10233000640100201C0100200148FDF7B8BF000027
:102340001C0000200148FDF7B2BF00001C00002067
:10235000FEE70907090E002804DB00F1E02080F801
:102360000014704700F00F0000F1E02080F8141D09
:10237000704702E008C8121F08C1002AFAD170474E
:102380007047002001E001C1121F002AFBD17047F5
:10239000FEF758FBFFF7B8FCFFF7A8FBFFF782FB3F
:1023A000FFF7C2FBFFF722FCFFF756FCFFF78AFCA2
:1023B0000148FEF76FF9FEE71C000020010202034E
:1023C0000405060708090A0B0C0D0E0F101000007B
:1023D00000000000000001020304060708090000D5
:1023E000000001020304000008240008000000208F
:1023F0001C00000072230008242400081C00002098
:102400005C050000822300080100000010000000AD
:102410000000000000127A0001000000000000002F
:0424200000000000B8
:04000005080000ED02
:00000001FF
